:100000000C949A110C94CB110C94CB110C94CB1131
:100010000C94CB110C94CB110C94CB110C94CB11F0
:100020000C94CB110C94CB110C94CB110C94CB11E0
:100030000C94CB110C94CB110C94CB110C94CB11D0
:100040000C94CB110C9444AA0C94CB110C94CB11AE
:100050000C94CB110C94CB110C94FD8D0C94824F0D
:100060000C94CB110C94504D0C94CB110C94CB11DF
:100070000C94CB110C94CB110C94CB110C94CB1190
:100080000C94CB110C94CB110C94CB110C94CB1180
:100090000C94CB110C94CB110C94CB110C94CB1170
:1000A0000C94CB110C94CB110C94CB110C94CB1160
:1000B0000C94CB110C94CB110C94CB110C94CB1150
:1000C0000C94CB110C94CB110C94CB110C94CB1140
:1000D0000C94CB110C94CB110C94CB110C94CB1130
:1000E0000C94CB11BE4DC14DB04DB44DBA4DF84D31
:1000F000C54DC94DCF4DD34DD74DDD4DE14DE54DEE
:10010000F84DEB4DEF4DF34D9E4EA34EA84EB24E23
:10011000BC4E354FC64ECE4ED64EE04EEA4EF44E55
:10012000034F0D4F354F174F214F2B4F598E698E6F
:10013000888E988EB38EB88EBB8EC08EC38EC88EBE
:10014000CB8ED08EDA8E084AD73B3BCE016E84BC74
:10015000BFFDC12F3D6C74319ABD56833DDA3D0021
:10016000C77F11BED9E4BB4C3E916BAAAABE00006A
:1001700000803F05A84CCDB2D44EB93836A9020C48
:1001800050B9918688083CA6AAAA2ABE0000008021
:100190003F00434F4D4D554E49434154494F4E004A
:1001A00044525952554E004552524F525300494EF7
:1001B000464F004543484F0020746F6F206C6F6EB0
:1001C0006720657874727573696F6E2070726576DA
:1001D000656E7465640A0020636F6C6420657874D2
:1001E000727573696F6E2070726576656E74656482
:1001F0000A00536C6565702E2E2E005A2070726FA7
:100200006265206F75742E206265640A005A207042
:10021000726F6265206F75742E2062656400205ACB
:100220003A200020593A200042656420583A2000C4
:10023000526573756D696E67207072696E740033F4
:1002400044205072696E7465722072656164792E03
:10025000005761697420666F7220757365722E2E67
:100260002E004E6F206D6F76652E00456E64206601
:10027000696C65206C6973740A00426567696E2059
:1002800066696C65206C6973740A0053442070724F
:10029000696E74696E67206279746520004E6F74B0
:1002A000205344207072696E74696E670A00466953
:1002B0006C652064656C657465643A0044656C65C2
:1002C00074696F6E206661696C65642C2046696C88
:1002D000653A20006F70656E206661696C65642CFC
:1002E0002046696C653A20002569730025696D20F8
:1002F000256973002569682025696D2025697300CB
:10030000256964202569682025696D2025697300A9
:1003100025697920256964202569682025696D2073
:10032000256973005072696E742074696D653A2096
:100330000048656174696E672E2E2E00334420508C
:1003400072696E7465722072656164792E00B30102
:10035000AE01A701A00192016F66660044454255B7
:10036000473A004B494C4C45442E20004D31313327
:100370002053006F6B0048656174696E6720646F7D
:100380006E652E003F0A0020573A00486561746987
:100390006E672E2E2E003344205072696E74657283
:1003A0002072656164792E0042656420646F6E6519
:1003B0002E003F0A0020573A0042656420486561DC
:1003C00074696E672E003344205072696E746572D2
:1003D0002072656164792E003344205072696E7416
:1003E0006572204F66662E004649524D5741524570
:1003F0005F4E414D453A4D61726C696E20312E3130
:100400002E302D52433720284769746875622920A1
:10041000534F555243455F434F44455F55524C3A05
:1004200068747470733A2F2F6769746875622E63ED
:100430006F6D2F4D61726C696E4669726D77617276
:10044000652F4D61726C696E2050524F544F434F6F
:100450004C5F56455253494F4E3A312E30204D4154
:100460004348494E455F545950453A3344205072F1
:10047000696E7465722045585452554445525F4325
:100480004F554E543A3120555549443A6365646599
:10049000326132662D343161322D343734382D39A2
:1004A0006231322D633535633632663336376666F0
:1004B0000A007A5F6D696E3A2000795F6D696E3A65
:1004C0002000785F6D696E3A20005265706F72741B
:1004D000696E6720656E6473746F702073746174E5
:1004E00075730A004D31343520533C696E6465786C
:1004F0003E206F7574206F662072616E67652028DC
:10050000302D31290A0053657474696E6720547266
:100510006176656C20416363656C65726174696FB7
:100520006E3A200053657474696E67205265747268
:1005300061637420416363656C65726174696F6E99
:100540003A200053657474696E67205072696E7446
:1005500020416363656C65726174696F6E3A200057
:1005600053657474696E67205072696E7420616E91
:10057000642054726176656C20416363656C6572BA
:100580006174696F6E3A200020643A0020693A0075
:1005900020703A0043290A0061626C656420286D6E
:1005A000696E2074656D702000436F6C64206578FF
:1005B00074727564657320617265200023646566DA
:1005C000696E65202044454641554C545F4B64207C
:1005D0000023646566696E65202044454641554C9C
:1005E000545F4B69200023646566696E6520204472
:1005F000454641554C545F4B7020005049442041C2
:1006000075746F74756E652066696E69736865646C
:10061000212050757420746865206C617374204BC0
:10062000702C204B6920616E64204B6420636F6ED8
:100630007374616E74732066726F6D2062656C6F87
:100640007720696E746F20436F6E6669677572619B
:1006500074696F6E2E680A00504944204175746FAA
:1006600074756E65206661696C6564212074696DBE
:10067000656F75740A00504944204175746F747534
:100680006E65206661696C6564212054656D7065D6
:1006900072617475726520746F6F20686967680A8B
:1006A00000204B643A2000204B693A2000204B7018
:1006B0003A200020436C61737369632050494420E1
:1006C0000A002054753A2000204B753A2000206D16
:1006D00061783A2000206D696E3A200020643A204B
:1006E0000020626961733A20004163746976652075
:1006F00045787472756465723A2000220A00556E5E
:100700006B6E6F776E20636F6D6D616E643A202241
:1007100000202B000A436F72726563746564204287
:100720006564204865696768742076732E20426589
:100730006420546F706F6C6F67793A0A00202B0049
:100740000A4265642048656967687420546F706F59
:100750006772617068793A0A2020202B2D2D2D2098
:100760004241434B202D2D2B0A2020207C2020208D
:1007700020202020202020207C0A204C207C2020AB
:100780002020282B29202020207C20520A204520B0
:100790007C20202020202020202020207C20490A8E
:1007A0002046207C20282D29204E20282B29207C03
:1007B00020470A2054207C20202020202020202098
:1007C00020207C20480A2020207C20202020282D4A
:1007D00029202020207C20540A2020207C2020203A
:1007E00020202020202020207C0A2020204F2D2D7A
:1007F0002046524F4E54202D2D2B0A2028302C30CD
:10080000290A004D65616E206F662073616D706C02
:10081000656420706F696E74733A200020643A201A
:100820000020623A200045716E20636F656666693C
:100830006369656E74733A20613A20002842296129
:10084000636B00284629726F6E740028522969670D
:10085000687400284C29656674003F4E756D6265AA
:1008600072206F662070726F626564202850296F55
:10087000696E747320697320696D706C617573693A
:10088000626C65202832206D696E696D756D292E48
:100890000A0052756E6E696E6720696E2044525967
:1008A0002D52554E206D6F64650A00473239204144
:1008B00075746F20426564204C6576656C696E675F
:1008C0000A003F2856296572626F7365204C657671
:1008D000656C20697320696D706C61757369626CF9
:1008E000652028302D34292E0A004E6F204C696E69
:1008F00065204E756D626572207769746820636843
:1009000065636B73756D2C204C617374204C696E3C
:10091000653A20004B494C4C45442E200053544F1F
:10092000505045442E20005072696E7465722073D9
:10093000746F707065642064756520746F206572D3
:10094000726F72732E204669782074686520657214
:10095000726F7220616E6420757365204D3939396C
:1009600020746F20726573746172742E2028546530
:100970006D7065726174757265206973207265733C
:1009800065742E20536574206974206166746572E5
:100990002072657374617274696E67290A004E6F04
:1009A00020436865636B73756D2077697468206C8C
:1009B000696E65206E756D6265722C204C61737472
:1009C000204C696E653A2000636865636B73756DD2
:1009D000206D69736D617463682C204C61737420A1
:1009E0004C696E653A20004C696E65204E756D62EB
:1009F0006572206973206E6F74204C617374204C93
:100A0000696E65204E756D6265722B312C204C61CC
:100A10007374204C696E653A20004D313130004DC1
:100A20003331004D383420582059205A2045005386
:100A3000442072656164206572726F720A00446FAF
:100A40006E65207072696E74696E672066696C6588
:100A50000A0020496E76616C69642065787472754D
:100A600064657220000000704300007A430000704B
:100A700043000000000000000000000000205A3A7F
:100A8000200020593A200042656420583A20002076
:100A9000706F736974696F6E206F7574206F662054
:100AA00072616E67652E0A003F50726F62652000AA
:100AB000436172642072656D6F7665640043617294
:100AC0006420696E736572746564000000210024FF
:100AD0000027002A002D003000330001010000042F
:100AE0000107010A0100002200250028002B002E2A
:100AF000003100340002010000050108010B01482B
:100B0000617264636F6465642044656661756C74CA
:100B10002053657474696E6773204C6F61646564FB
:100B20000A0020204D383531205A005A2D50726F5E
:100B30006265204F666673657420286D6D293A0AD8
:100B40000020204D3230302044300A0020204D3229
:100B500030302044002044697361626C65640A008F
:100B600046696C616D656E742073657474696E6737
:100B7000733A0020440020490020204D33303120BA
:100B800050005049442073657474696E67733A0A63
:100B90000020460020420020204D313435205331C2
:100BA00020480020460020420020204D31343520CE
:100BB00053302048004D6174657269616C2068652E
:100BC0006174757020706172616D65746572733ADD
:100BD0000A00205A0020590020204D32303620587B
:100BE00000486F6D65206F666673657420286D6DB3
:100BF000290A00204500205A0020580020420020E9
:100C0000540020204D323035205300416476616E0F
:100C1000636564207661726961626C65733A205322
:100C20003D4D696E20666565647261746520286D4E
:100C30006D2F73292C20543D4D696E20747261769E
:100C4000656C20666565647261746520286D6D2F22
:100C500073292C20423D6D696E696D756D20736539
:100C6000676D656E742074696D6520286D73292C1D
:100C700020583D6D6178696D756D205859206A6501
:100C8000726B20286D6D2F73292C20205A3D6D61C9
:100C900078696D756D205A206A65726B20286D6DBC
:100CA0002F73292C2020453D6D6178696D756D206D
:100CB00045206A65726B20286D6D2F73290A00200C
:100CC000540020520020204D323034205000416327
:100CD00063656C65726174696F6E733A20503D7024
:100CE00072696E74696E672C20523D726574726110
:100CF000637420616E6420543D74726176656C0A81
:100D000000204500205A0020590020204D3230316B
:100D10002058004D6178696D756D20416363656C85
:100D200065726174696F6E20286D6D2F7332293A78
:100D30000A00204500205A0020590020204D323062
:100D4000332058004D6178696D756D206665656466
:100D5000726174657320286D6D2F73293A0A002023
:100D60004500205A0020590020204D3932205800DB
:100D700053746570732070657220756E69743A0AD9
:100D800000000020002300260029002C002F003244
:100D90000000010000030106010901050505050722
:100DA0000508080808020202020A0A0808040404E6
:100DB0000401010101010101010303030303030312
:100DC00003040707070C0C0C0C0C0C0C0C020202A1
:100DD0000206060606060606060B0B0B0B0B0B0B94
:100DE0000B01021020200808102040102040800233
:100DF0000102010804020101020408102040808061
:100E000040201008040201800402018040201008E4
:100E100004020108040201010204081020408001BC
:100E20000204081020408000000A0B02090C0D0E7D
:100E3000080703040100000000000000000000009B
:100E400000000000000000000000000000000000A2
:100E5000000000121110000000000000000000005F
:100E6000000000000000000000000000004B494CA2
:100E70004C45442E2000202D20496E76616C69641B
:100E8000206578747275646572206E756D62657226
:100E900020210A002D2D2D2D2D2D007C4D61726CF1
:100EA000696E7C002D2D2D2D2D2D00687474703AE7
:100EB0002F2F6D61726C696E66772E6F7267006896
:100EC0007474703A2F2F6D61726C696E66772E6F35
:100ED00072670020312E312E302D524337002020F2
:100EE000506C616E6E6572427566666572427974A9
:100EF00065733A20002046726565204D656D6F72FE
:100F0000793A20004E6F7620313320323031360A64
:100F100000436F6D70696C65643A2000286E6F6ED7
:100F2000652C2064656661756C7420636F6E6669FC
:100F300067290A00207C20417574686F723A20008E
:100F4000323031362D30372D33312031323A303096
:100F500000204C61737420557064617465643A209C
:100F60000020312E312E302D5243370A004D617250
:100F70006C696E0020536F667477617265205265EC
:100F80007365740A00205761746368646F67205248
:100F9000657365740A002042726F776E206F7574F6
:100FA0002052657365740A002045787465726E611D
:100FB0006C2052657365740A00506F7765725570C6
:100FC0000A0073746172740A006572726F7220771E
:100FD000726974696E6720746F2066696C650A00B7
:100FE000456E6473746F707320256320256320251C
:100FF0006320256300205A3A0020593A0020583ACD
:1010000000656E6473746F7073206869743A2000B1
:10101000446F6E6520736176696E672066696C65E2
:101020002E0A004D32390046696C2E204469612E2B
:101030000046696C2E204469612E004F6666004FA1
:101040006E20004520696E206D6D3300436F6E7415
:10105000726F6C0043616E6E6F7420656E746572A2
:10106000207375626469723A2000052E2E004D616E
:10107000696E0042656400426564004E6F7A7A6C66
:1010800065004E6F7A7A6C650046616E20737065FC
:1010900065640046616E2073706565640054656D1B
:1010A00070657261747572650042656400426564C2
:1010B000004E6F7A7A6C65004E6F7A7A6C650046E6
:1010C000616E2073706565640046616E20737065A3
:1010D00065640054656D7065726174757265004574
:1010E00073746570732F6D6D004573746570732F25
:1010F0006D6D005A73746570732F6D6D005A737443
:101100006570732F6D6D005973746570732F6D6DFD
:10111000005973746570732F6D6D0058737465702A
:10112000732F6D6D005873746570732F6D6D004172
:101130002D74726176656C00412D74726176656CF8
:1011400000412D7265747261637400412D72657483
:101150007261637400416D6178204500416D617872
:10116000204500416D6178205A00416D6178205A18
:1011700000416D6178205900416D6178205900412E
:101180006D6178205800416D617820580056547286
:101190006176206D696E005654726176206D696EBD
:1011A00000566D696E00566D696E00566D6178204F
:1011B0004500566D6178204500566D6178205A00D3
:1011C000566D6178205A00566D6178205900566D31
:1011D0006178205900566D6178205800566D61780D
:1011E00020580056652D6A65726B0056652D6A653C
:1011F000726B00567A2D6A65726B00567A2D6A659D
:10120000726B005678792D6A65726B005678792D6D
:101210006A65726B00416363656C00416363656C72
:10122000005A204F6666736574005A204F666673D5
:10123000657400436F6E74726F6C00466C6F77005C
:10124000466C6F770046616E20737065656400467A
:10125000616E207370656564004265640042656478
:10126000004E6F7A7A6C65004E6F7A7A6C65005327
:1012700070656564005370656564004D61696E005A
:101280005072656865617420504C4120426564006D
:101290005072656865617420504C410050726570F1
:1012A0006172650050726568656174204142532027
:1012B0004265640050726568656174204142530064
:1012C00050726570617265004D3432380053776931
:1012D00074636820706F776572206F6E004D3831CF
:1012E0000053776974636820706F776572206F664A
:1012F00066004D383000436F6F6C646F776E00503E
:10130000726568656174204142530050726568657A
:10131000617420504C41004D38340044697361625F
:101320006C65207374657070657273004D6F7665BF
:101330002061786973004732380A473239004732F2
:1013400039004C6576656C206265640053657420D5
:10135000686F6D65206F6666736574730047323819
:10136000004175746F20686F6D65004D61696E0096
:101370004D6F76652058004D6F76652059004D6F92
:101380007665205A0053442063617264206F6B0AB3
:10139000006F70656E526F6F74206661696C656472
:1013A0000A00766F6C756D652E696E6974206661D2
:1013B000696C65640A00534420696E697420666133
:1013C000696C0A006175746F25692E67004D3234AF
:1013D000004D32332025730057726974696E67209F
:1013E000746F2066696C653A20006F70656E2066C8
:1013F00061696C65642C2046696C653A20006F70E9
:10140000656E206661696C65642C2046696C653A7E
:10141000200046696C652073656C65637465640AB9
:10142000002053697A653A200046696C65206F7028
:10143000656E65643A20006F70656E206661696C48
:1014400065642C2046696C653A20004E6F772066F3
:10145000726573682066696C653A20004E6F77206C
:10146000646F696E672066696C653A20002220709F
:101470006F73002220706172656E743A22005355BA
:1014800042524F5554494E452043414C4C207461C3
:10149000726765743A22004B494C4C45442E20003B
:1014A000747279696E6720746F2063616C6C20734D
:1014B00075622D67636F64652066696C657320775C
:1014C00069746820746F6F206D616E79206C657629
:1014D000656C732E204D4158206C6576656C2069D3
:1014E000733A004572726F723A002042403A00200F
:1014F000403A00202F0020423A00202F0020543A8A
:1015000000205A3A0020593A0020436F756E74202B
:10151000583A200020453A00205A3A0020593A0013
:10152000583A004F666673657473206170706C6919
:101530006564004572723A20546F6F2066617221B3
:1015400000546F6F206661722066726F6D20726545
:10155000666572656E636520706F696E740A003A25
:1015600020007A5F6D61783A20007A5F6D696E3A8B
:1015700020005A204F6666736574003A20007A5F37
:101580006D61783A20007A5F6D696E3A20005A20CA
:101590004F6666736574003A20007A5F6D61783A31
:1015A00020007A5F6D696E3A20005A204F6666739C
:1015B000657400457874727564657200457874725C
:1015C00075646572004D6F7665205A004D6F7665C3
:1015D0002059004D6F76652058004D6F766520616B
:1015E000786973004D6F766520302E316D6D004D3A
:1015F0006F766520316D6D004D6F76652031306DF1
:101600006D005072657061726500526573746F721F
:1016100065206661696C736166650046696C616D21
:10162000656E74004D6F74696F6E0054656D706502
:10163000726174757265004D61696E005072656803
:101640006561742041425320636F6E66005072657D
:101650006865617420504C4120636F6E660050498C
:10166000442D44005049442D44005049442D490024
:101670005049442D49005049442D50005049442DB3
:1016800050002002204661637400200220466163FE
:1016900074002002204D6178002002204D61780006
:1016A0002002204D696E002002204D696E004F66B9
:1016B00066004F6E20004175746F74656D70004652
:1016C000616E2073706565640046616E207370659D
:1016D00065640042656400426564004E6F7A7A6C0E
:1016E00065004E6F7A7A6C6500436F6E74726F6C32
:1016F000006265640A002C2073797374656D207331
:10170000746F7070656421204865617465725F490B
:10171000443A200048656174696E67206661696CAF
:1017200065640048656174696E67206661696C650F
:10173000640048656174696E67206661696C656400
:101740000048656174696E67206661696C65640054
:10175000544845524D414C2052554E415741590035
:10176000546865726D616C2052756E6177617900A5
:101770004572723A204D415854454D50004D4158E4
:1017800054454D5020747269676765726564004501
:1017900072723A204D494E54454D50004D494E54B9
:1017A000454D5020747269676765726564004572C3
:1017B000723A204D494E54454D5020424544004D0B
:1017C000494E54454D50207472696767657265646F
:1017D000004572723A204D415854454D50204245C3
:1017E00044004D415854454D5020747269676765F7
:1017F000726564006F6B00627573793A2070617571
:1018000073656420666F7220696E7075740A006279
:101810007573793A2070617573656420666F722004
:10182000757365720A00627573793A2070726F631E
:10183000657373696E670A004B494C4C45442E2012
:10184000004B494C4C45442E2000506C656173653B
:10185000207265736574005052494E5445522048B9
:10186000414C544544005072696E74657220686141
:101870006C7465642E206B696C6C28292063616C24
:101880006C6564210A00220A00656E7175657565D4
:10189000696E6720220000000000000000000000C8
:1018A00000005761726E696E673A20486F6D696E0D
:1018B000672042756D702044697669736F72203CB1
:1018C00020310A000000A0400000A04000000040BD
:1018D0000000704300007A4300007043FFFFFF7078
:1018E000012C0190012701B0012201C0011D01F06E
:1018F0000118011002130130020E0160020901906B
:10190000020401C002FF000003FA004003F500805A
:1019100003F000D003EB002004E6007004E100E0D7
:1019200004DC004005D700C005D2004006CD00D041
:1019300006C8008007C3003008BE00F008B900C028
:1019400009B400B00AAF00B00BAA00D00CA500008B
:101950000EA000500F9B00C0109600501291000086
:10196000148C00C0158700B0178200B0197D00D01C
:101970001B7800001E730040206E0090226900F06A
:1019800024640040275F0090295A00E02B55001086
:101990002E500020304B0010324600E033410090C2
:1019A000353C001037370070383200A0392D00B0B8
:1019B0003A2800A03B2300603C1E00103D19009017
:1019C0003D1400103E0F00703E0A00C03E050000AE
:1019D0003F0000206669727374005A005900580075
:1019E000486F6D6520002066697273740A005A00A2
:1019F00059005800486F6D6520006563686F3A00B4
:101A0000253032693A25303269002D2D2D0053449E
:101A1000005A005900200020003F0058000120001B
:101A20000120005072696E742066726F6D205344FD
:101A30000053746F70207072696E74005265737514
:101A40006D65207072696E74004E6F205344206380
:101A5000617264005061757365207072696E740004
:101A6000436F6E74726F6C005072657061726500C6
:101A700054756E6500496E666F2073637265656E9E
:101A8000007C3C3E5E2B3D3F2F5B5D3B2C2A225C65
:101A90000024F4D43050C38E20C2A24017828B7031
:101AA00011127A910D816CD90AA861E108C75866B4
:101AB00007615143061E4B5D05C145A7041A41113C
:101AC00004093D9803713931034036DB02653391D7
:101AD00002D4305402802E1D02632CEE01752AC5FB
:101AE00001B028A001102781018F2564012B244B10
:101AF00001E0223401AC211F018D200D01801FFC6B
:101B000000841EED00971DDF00B81CD200E61BC646
:101B100000201BBC00641AB200B219A8000A19A068
:101B2000006A189900D117910040178B00B51684F0
:101B30000031167E00B31579003A157300C7146F93
:101B40000058146A00EE1366008813630025135EC4
:101B500000C7125B006C12570015125400C11151DE
:101B60000070114F0021114B00D61049008D104715
:101B7000004610440002104200C00F4000800F3E9B
:101B800000420F3C00060F3B00CB0E3800930E378F
:101B9000005C0E3500270E3400F30D3200C10D310C
:101BA00000900D3000600D2E00320D2D00050D2C23
:101BB00000D90C2B00AE0C2900850C29005C0C27E9
:101BC00000350C27000E0C2600E80B2400C40B2463
:101BD00000A00B23007D0B23005A0B2100390B21A1
:101BE00000180B2000F80A1F00D90A1E00BB0A1EAD
:101BF000009D0A1D00800A1D00630A1C00470A1B85
:101C0000002C0A1B00110A1A00F7091A00DD091935
:101C100000C4091900AB091900920917007B0918C3
:101C200000630917004C0916003609160020091632
:101C3000000A091500F5081500E0081400CC081486
:101C400000B8081400A4081400900813007D0812BE
:101C5000006B0813005808120046081200340811DF
:101C600000230811001208110001081100F00710EC
:101C700000E0071000D0071000C0071000B0070FE9
:101C800000A107100091070E0083070F0074070FD3
:101C90000065070E0057070E0049070E003B070DB1
:101CA000002E070E0020070D0013070D0006070D7C
:101CB00000F9060C00ED060D00E0060C00D4060C41
:101CC00000C8060C00BC060C00B0060C00A4060BF5
:101CD0000099060C008D060B0082060B0077060BA0
:101CE000006C060B0061060A0057060B004C060A42
:101CF0000042060A0038060A002E060A0024060AD8
:101D0000001A060A001006090007060A00FD050968
:101D100000F4050900EB050900E2050900D90509F1
:101D200000D0050900C7050900BE050900B5050872
:101D300000AD050800A50509009C050800940508EC
:101D4000008C050800840508007C0508007405085F
:101D5000006C050700650508005D050700560508CD
:101D6000004E050700470507004005080038050735
:101D700000310507002A050700230507001C05069A
:101D800000160507000F05070008050600020507F5
:101D900000FB040600F5040700EE040600E8040654
:101DA00000E2040700DB040600D5040600CF0406A9
:101DB00000C9040600C3040600BD040600B70406FB
:101DC00000B1040500AC040600A6040600A004054A
:101DD000009B04060095040500900406008A040593
:101DE0000085040500800406007A040500750405DA
:101DF00000700405006B040500660405006104051D
:101E0000005C04050057040500520405004D04055C
:101E10000048040500430405003E0404003A04059C
:101E20000035040500300404002C040500270404D8
:101E300000230405001E0404001A0404001604050F
:101E400000110404000D0404000904050004040446
:101E50000000040400FC030400F8030400F403047D
:101E600000F0030400EC030400E8030400E40304AE
:101E700000E0030400DC030400D8030400D40304DE
:101E800000D0030400CC030400C8030300C503030F
:101E90000024F404D9201BC40C5C0E9804C4095F10
:101EA0000265077101F405F900FB04B300480487DB
:101EB00000C10369005803550003034500BE023A00
:101EC000008402310053022A002902250004022066
:101ED00000E4011C00C8011900AF011700980114AB
:101EE0000084011300710110006101100051010E06
:101EF0000043010D0036010B002B010B0020010BEC
:101F000000150109000C01090003010800FB00088D
:101F100000F3000800EB000700E4000600DE000606
:101F200000D8000600D2000600CC000500C700055E
:101F300000C2000500BD000400B9000400B50004A3
:101F400000B1000400AD000400A9000400A50003D6
:101F500000A20003009F0004009B00030098000300
:101F6000009500020093000300900003008D000222
:101F7000008B00030088000200860002008400033A
:101F800000810002007F0002007D0002007B000251
:101F90000079000200770001007600020074000260
:101FA0000072000100710002006F0002006D00016C
:101FB000006C0002006A0001006900020067000175
:101FC000006600010065000100640002006200017B
:101FD0000061000100600001005F0002005D00017F
:101FE000005C0001005B0001005A00010059000183
:101FF0000058000100570001005600010055000183
:102000000054000100530000005300010052000181
:102010000051000100500001004F0001004E00007F
:10202000004E0001004D0001004C0001004B00007B
:10203000004B0001004A0001004900010048000077
:102040000048000100470001004600000046000172
:10205000004500000045000100440001004300006D
:102060000043000100420000004200010041000066
:102070000041000100400001003F0000003F00015E
:10208000003E0000003E0001003D0000003D000158
:10209000003C0000003C0000003C0001003B000050
:1020A000003B0001003A0000003A00010039000046
:1020B000003900010038000000380000003800013D
:1020C0000037000000370001003600000036000035
:1020D0000036000100350000003500000035000129
:1020E0000034000000340000003400010033000020
:1020F0000033000000330001003200000032000015
:102100000032000100310000003100000031000108
:10211000003000000030000000300001002F0000FF
:10212000002F0000002F0000002F0001002E0000F3
:10213000002E0000002E0001002D0000002D0000E8
:10214000002D0000002D0001002C0000002C0000DC
:10215000002C0000002C0001002B0000002B0000D0
:10216000002B0000002B0001002A0000002A0000C4
:10217000002A0000002A00010029000000290000B8
:1021800000290000002900000029000100280000AB
:10219000002800000028000000280000002800019E
:1021A0000027000000270000002700000027000093
:1021B0000027000100260000002600000026000085
:1021C0000026000000260001002500000025000078
:1021D000002500000025000000250000002500016A
:1021E000002400000024000000240000002400005F
:1021F0000024000100230000002300000023000051
:102200000023000000230000002300000023000141
:102210000022000000220000002200000022000036
:102220000022000000220001002100000021000027
:10223000002100000021000000210000002100001A
:10224000002100010020000000200000002000000C
:1022500000200000002000000020000000200000FE
:1022600000200001001F0000001F0000001F0000F0
:10227000001F0000001F0000001F0000001F0001E1
:10228000001E0000001E0000001E0000001E0000D6
:10229000004D383420582059205A20450020746FB2
:1022A0006F206C6F6E6720657874727573696F6EDE
:1022B0002070726576656E7465640A0020636F6CC9
:1022C0006420657874727573696F6E2070726576BC
:1022D000656E7465640A0043616E6E6F74206F7082
:1022E000656E207375626469722000526573656E55
:1022F000643A20004E414E494E495459494E46CD0C
:10230000CCCC3D0AD7233C17B7D13877CC2B3295AC
:1023100095E6241FB14F0A000020410000C842008A
:10232000401C4620BCBE4CCA1B0E5AAEC59D740054
:10233000ADCC8CCC11241FBECFEFD1E2DEBFCDBF20
:1023400000E00CBF14E0A0E0B2E0E4EFFCEB01E041
:102350000BBF02C007900D92AE37B107D9F723E14A
:10236000AEE7B4E001C01D92AB34B207E1F711E172
:10237000C9E9D1E100E006C021970109802FFE01E3
:102380000E94A7D2C839D10780E00807A9F70E94A8
:1023900080C50C9468DE0C9400002F923F924F92FF
:1023A0005F926F927F928F929F92AF92BF92CF92E5
:1023B000DF92EF92FF920F931F93CF93DF93CDB7EE
:1023C000DEB7CF56D1090FB6F894DEBF0FBECDBF32
:1023D0000091DF0620E6029F80011124015A1A4F66
:1023E00010938E0400938D048091151380FF19C003
:1023F0003AEFE32E39E1F32EF7018491882331F08F
:102400000E94209B3FEFE31AF30AF6CFD8018D918B
:102410008D01882319F00E94209BF8CF8AE00E944A
:10242000209B20918D0430918E04F90180812F5FD3
:102430003F4F8032D1F3F0938E04E0938D048E34BD
:1024400069F010918D0400918E046AE270E0812F92
:10245000902F0E94EBD50097D1F420C0818190EDA0
:10246000980F9A3010F08D3261F73296DF01319675
:102470002C9120532A30D0F3CD01FC01019620810C
:102480002032D9F3F0938E04E0938D04DACFFC016F
:1024900031968291803231F08A3221F0A12FB02F13
:1024A0009D9102C01082F5CFFD018081119680328E
:1024B000D9F380538A3020F00AEF19E10C94742983
:1024C00020E030E06AE0629FA001639F500D11247C
:1024D0009A01205331098191280F311D87FD3A95CA
:1024E000808180538A3078F38F013196D8018C91A6
:1024F0008032D1F310938C0400938B0441E050E0C0
:102500005093F7094093F6099D3409F455C4943566
:1025100011F40C941729973411F00C9440292C31A4
:10252000310509F48FC170F42430310528F42230CC
:10253000310508F44CC03FC12430310509F444C1D1
:102540000C9468292A35310509F482C3B0F52D3180
:10255000310509F418C32E31310511F00C946829A6
:102560000E942B4D20E030E040E85FE360915C0783
:1025700070915D0780915E0790915F070E94BFD2C6
:102580004B015C0120E030E040E85FE360915807D8
:102590007091590780915A0790915B070E94BFD2B2
:1025A000EE24E394F12C01E0A50194010E94974BE5
:1025B0006B017C0108E212E0EAC22B35310509F417
:1025C0004BC32C35310509F44CC30C946829809118
:1025D0003D02882311F40C9468290E946B438CE01F
:1025E0009AE00E945A9A0E94EC478091151383FF4B
:1025F00016C020910C0A30910D0A40910E0A50919C
:102600000F0A609158077091590780915A0790916D
:102610005B070E9468DA882309F490C0ACC0809000
:10262000180A9090190AA0901A0AB0901B0A2091DB
:102630006407309165074091660750916707C501AF
:10264000B4010E94BED26B017C0120E030E0A90100
:102650000E9468DA882369F280911013882331F18F
:10266000C701B6010E941CD497FF07C090958095C2
:10267000709561957F4F8F4F9F4F6B3E71408105E5
:1026800091050CF4B6CF8091180A9091190AA09187
:102690001A0AB0911B0A8093640790936507A09370
:1026A0006607B09367070AEF19E133C020918902EA
:1026B00030918A0240918B0250918C0260912E0AD7
:1026C00070912F0A8091300A9091310A0E9468DA45
:1026D00087FFC6CF8092640790926507A092660735
:1026E000B09267070AEF19E1F8018491882329F075
:1026F0000E94209B0F5F1F4FF7CF07ED11E0F801FD
:102700008491882309F4ACCF0E94209B0F5F1F4F58
:10271000F6CFF8018491882329F00E94209B0F5F57
:102720001F4FF7CF08EB11E0F8018491882309F4DB
:1027300060CF0E94209B0F5F1F4FF6CF2091100AA1
:102740003091110A4091120A5091130A60915C076E
:1027500070915D0780915E0790915F070E9468DA33
:10276000811109C060910002709101028091020202
:10277000909103021AC060911A0270911B02072EF9
:10278000000C880B990B0E946EDA209100023091A8
:10279000010240910202509103020E94CDDA2AE028
:1027A00037ED43E25CE30E94CDDA0E94D7410E94FC
:1027B000CD410C94682981E02230310509F080E098
:1027C0000E94F6470C94682980E50E94E84288231D
:1027D00029F00E9437436B017C0103C0C12CD12C2E
:1027E000760183E50E94E842882321F00E94D443C9
:1027F0006B017C010E9473940E94EC478091F80960
:102800009091F909A091FA09B091FB09C80ED91E5F
:10281000EA1EFB1E80914602811105C060E082EF36
:1028200091E00E9473550E94764FDC01CB018C1918
:102830009D09AE09BF09B7FD02C00C9468290E942A
:102840001798F1CF0E94739480E090E0A0E8BFE376
:102850008093D00A9093D10AA093D20AB093D30A5E
:102860001092D40A1092D50A1092D60A1092D70A62
:102870001092D80A1092D90A1092DA0A1092DB0A42
:102880001092DC0A1092DD0A1092DE0A1092DF0A22
:102890008093E00A9093E10AA093E20AB093E30ADE
:1028A0001092E40A1092E50A1092E60A1092E70AE2
:1028B0001092E80A1092E90A1092EA0A1092EB0AC2
:1028C0001092EC0A1092ED0A1092EE0A1092EF0AA2
:1028D0008093F00A9093F10AA093F20AB093F30A5E
:1028E0000E942B4D11E01093130288E50E94E842EC
:1028F000E82E89E50E94E842082F8AE50E94E84216
:10290000F82EE11005C0011105C0982F912705C0D0
:10291000011102C090E001C0982F9093040280E161
:10292000E8E5F7E0ACE0BAE001900D928A95E1F7B6
:10293000911104C0E11002C00023A9F120E030E0B1
:1029400040EA50E460913A0570913B0580913C0566
:1029500090913D050E94BFD22091080A3091090A4A
:1029600040910A0A50910B0A0E94BFD24B015C01B0
:102970006093140A7093150A8093160A9093170AAD
:102980002091600730916107409162075091630781
:102990000E9407D518163CF420E030E0A901C501DB
:1029A000B4010E943C4180910402811102C0EE20DA
:1029B00021F080E090E00E941A968091040281113B
:1029C00002C0002321F081E090E00E941A968091DD
:1029D0000402811103C0F11036C0C7C00E94054730
:1029E00080E090E0AEEEB2E480930C0A90930D0A82
:1029F000A0930E0AB0930F0A80E090E0A8EFB2E433
:102A00008093100A9093110AA093120AB093130AAC
:102A1000E0906007F09061070091620710916307F2
:102A2000E092140AF092150A0093160A1093170AFE
:102A3000A12CB12C65019C01AD0160E070E08EEE2F
:102A400092E40E94494080E00E94639C81110C94B2
:102A50006829209132053091330540913405509119
:102A60003505609158077091590780915A079091E8
:102A70005B070E94BED22091000A3091010A40916A
:102A8000020A5091030A0E94BED26B017C01809021
:102A90005C0790905D07A0905E07B0905F07409044
:102AA00036055090370560903805709039052091B3
:102AB000040A3091050A4091060A5091070A2BAF8B
:102AC0003CAF4DAF5EAF20E030E040E85FEB0E94EE
:102AD00007D587FD2FC020E030E04FE653E4C70163
:102AE000B6010E9468DA18162CF1A3019201C50103
:102AF000B4010E94BED22BAD3CAD4DAD5EAD0E9487
:102B0000BED26B017C0120E030E040E85FEB0E9428
:102B100007D587FD0FC020E030E049E753E4C70147
:102B2000B6010E9468DA18162CF082E090E00E944C
:102B30001A961BC060E08DE092E00E9473550AEF88
:102B400019E1F8018491882329F00E94209B0F5FEE
:102B50001F4FF7CF0BEF11E0F8018491882329F084
:102B60000E94209B0F5F1F4FF7CF0E940547809167
:102B70001F058093130210925E050E94124D0E9461
:102B80007E820C9468290E947A2B0C946829F801A3
:102B90008491882329F00E94209B0F5F1F4FF7CF5D
:102BA00020E030E040E85FE36091580770915907FA
:102BB00080915A0790915B070E94BFD227E137EBC3
:102BC00041ED58E30E94BFD242E00E94CF9B03E256
:102BD00012E0F8018491882329F00E94209B0F5F66
:102BE0001F4FF7CF20E030E040E85FE360915C07E3
:102BF00070915D0780915E0790915F070E94BFD240
:102C000027E137EB41ED58E30E94BFD242E00E943A
:102C1000CF9B0EE112E0F8018491882329F00E94F5
:102C2000209B0F5F1F4FF7CF27E137EB41ED58E3B4
:102C3000C701B6010E94BFD242E00E94CF9B8AE04A
:102C40000E94209B0E94124D0E947E820C94682953
:102C500010928A040C94682981E080938A040C9471
:102C6000692985E40E94E842B82E811102C00E94C1
:102C70007394BAE98B2EB2E09B2E18E5C12E17E0B3
:102C8000D12E00E0E02E0AE0F02E00E010E0A12CB2
:102C9000D4018D914D010E94E8428823F1F1F601A3
:102CA0002081318142815381AD962FAFAD97AE9691
:102CB0003FAFAE97AF964FAFAF97E0965FAFE0975D
:102CC0000E944243D6016D937D938D939C931397FD
:102CD000AD962FADAD97AE963FADAE97AF964FADDB
:102CE000AF97E0965FADE09703301105B1F00E9419
:102CF000BED29B01AC01F701608171818281938119
:102D00000E94BFD2D7016D937D938D939C931397AF
:102D1000C8010E949D42AA24A3940F5F1F4FB4E0F4
:102D2000CB0ED11CE4E0EE0EF11C0430110509F0CD
:102D3000AFCFAA2021F00E9405470C946829BB2040
:102D400011F40C9468292091740730917507409113
:102D500076075091770760916407709165078091BD
:102D60006607909167070E94CDDA0E9412D56093A2
:102D7000140B7093150B8093160B9093170B8FB752
:102D8000F8944091140B5091150B6091160B7091B3
:102D9000170B409354075093550760935607709351
:102DA00057078FBF1092040B1092050B1092060B61
:102DB0001092070B0C9468292037310509F4F6C5E9
:102DC00008F0C3C02B34310509F40BC508F061C00D
:102DD0002831310509F44AC2D8F52231310511F400
:102DE0000C94F520D8F42230310508F490C121313B
:102DF000310511F00C94682960E082E692E00E94AF
:102E000073555F988A989FB7F894809108018E7FD8
:102E1000809308019FBF12980C94682925313105D1
:102E200009F41AC240F42431310511F00C946829D8
:102E30000AE712E0F9C12631310509F411C2273140
:102E4000310511F00C9468290E94DC840C946829E7
:102E50002C31310509F468C238F42A31310509F4FE
:102E60001AC208F40EC225C22F31310509F4BDC3C0
:102E700030F42E31310509F45EC20C9468292032F9
:102E8000310509F462C32A32310509F468C40C948F
:102E900068292C35310511F40C94332198F521352E
:102EA000310511F40C94CF20C8F42D34310509F408
:102EB000B6C408F49AC42035310511F00C94682981
:102EC000269A2E9881E080931C0260E086EC93E0C5
:102ED0000E9473550E9499550C9468292335310539
:102EE00011F40C94F02010F40C94EC2024353105EE
:102EF00011F40C94F5202535310511F40C942021A2
:102F00000C9468292B36310511F40C94BD2068F41B
:102F10002936310509F496C510F00C94972028360F
:102F2000310509F480C40C9468292D36310509F463
:102F3000A5C508F437C52E36310509F4BAC42F36B5
:102F4000310509F4C9C40C9468292D3D310511F4EB
:102F50000C94842408F060C02139310511F40C94DC
:102F6000382280F52537310511F40C94C52180F401
:102F70002237310511F40C94CA2108F41FC52337F8
:102F8000310511F00C94682908EE13E00C94BB2174
:102F90002837310511F40C94CD2148F42737310539
:102FA00011F00C9468290AEC14E00C94D82129370C
:102FB000310511F40C94D3212C38310509F429C5BD
:102FC0000C9468292B3C310511F40C944D2380F4AA
:102FD000283C310511F40C94E322293C310511F40D
:102FE0000C942C232E3B310511F00C9468291AC740
:102FF0002D3C310511F40C94D42310F40C946A2365
:103000002E3C310511F40C9430242C3D310511F483
:103010000C9477240C9468292A39F1E03F0709F4CD
:10302000C9C4A8F52E3251E0350711F40C94CE2511
:1030300080F42C3291E0390711F40C94ED2410F057
:103040000C941325223E310511F40C949D240C940C
:1030500068292039B1E03B0711F40C94E22838F4D8
:103060002F32314011F40C9439260C9468292139FF
:1030700041E0340711F40C94E5282239314011F075
:103080000C94682980E00E9491410C9468292533B2
:1030900082E0380711F40C940129E8F4253FA1E0FF
:1030A0003A0711F40C94E92848F42C3A314011F015
:1030B0000C9468290E9436830C946829263FF1E01D
:1030C0003F0711F40C94EF28273F314011F40C9482
:1030D000F2280C946829233553E0350711F40C9439
:1030E000042948F42F33324011F00C9468290E94CF
:1030F00095800C946829203AA3E03A0709F46BC242
:10310000273E334011F40C9407290C94682980E57C
:103110000E94E842882361F00E9437436B017C01E2
:10312000BB24B394672B682B692B31F4B12C04C0FA
:10313000B12CC12CD12C760183E50E94E842882372
:1031400099F00E94D4436B017C01B1100FC0672B32
:10315000682B692B59F4F8018081882339F061E0EC
:10316000C8010E94885507C0BB20A9F360E081E533
:1031700092E00E94735581E08093150E1092140E18
:103180000E9473940E94EC47C114D104E104F1043D
:1031900039F18091F8099091F909A091FA09B0915B
:1031A000FB09C80ED91EEA1EFB1E83E090E0909337
:1031B000F7098093F6090E94764FDC01CB018C1948
:1031C0009D09AE09BF09B7FD02C00C949F298091EB
:1031D000060582FF02C00C949F290E941798EBCF2E
:1031E00083E090E09093F7098093F60980910605BB
:1031F00082FD03C00E941798F9CF81E090E0909380
:10320000F7098093F6098091480B60E0882331F03C
:1032100080E392E00E9473550C9468298FE392E05A
:103220000E9473550C946829F8018491882329F031
:103230000E94209B0F5F1F4FF7CF0E940BC10BE630
:1032400012E0F8018491882311F40C9468290E94FB
:10325000209B0F5F1F4FF5CF0E945E7E0C94682964
:103260001092480B1092490B0C9468298091490BDD
:10327000882319F081E08093480B0E9448C10C9488
:1032800068298091480B882311F40C9468291092C6
:10329000480B0C9468298091490B882311F40C94F5
:1032A000682983E50E94E84281110C94AB290C94B3
:1032B00068298091490B811103C00DE912E029C0F2
:1032C0000BE812E0F8018491882329F00E94209BEA
:1032D0000F5F1F4FF7CF6091C40D7091C50D8091A6
:1032E000C60D9091C70D4AE00E94279B8FE20E9475
:1032F000209B6091C00D7091C10D8091C20D909185
:10330000C30D4AE00E94279B8AE00E94209B0C94F8
:103310006829F8018491882311F40C9468290E948B
:10332000209B0F5F1F4FF5CF40E060E0C8010E9477
:10333000DE7A0C9468298091490B882311F40C944F
:10334000682983E19DE00E948F6083E19DE00E94F7
:103350000DA61092470B1092460BC0908B04D09094
:103360008C048091490B882311F40C94682983E123
:103370009DE00E940DA61092480B1D8218861C82AB
:103380001B8288EB93E09A83898385E79BE0909387
:10339000950B8093940BD6018C91FE01B0967F0122
:1033A0008F3209F05EC06FE270E0C6010E94EBD57B
:1033B0008C010F5F1F4F9E012F5F3F4F4901011589
:1033C000110509F454C06FE270E0C8010E94EBD50A
:1033D0005C01009709F44CC00817190708F048C0B1
:1033E0003C01601A710AA301B801C7010E9414D6FA
:1033F000F701E60DF71D10828701D8018D918D012F
:10340000882319F00E94209BF8CF8AE00E94209B1D
:103410006091940B7091950B6115710511F06C5FC3
:103420007F4F21E0A701CE0105960E9453A981118B
:1034300010C0A701FF0C660B770B84ED92E00E9491
:103440001E478EE20E94209BC4010E94B9970C94F3
:1034500068299092950B8092940B85010F5F1F4F06
:10346000AECF86E99BE09093950B8093940B8601F9
:103470006091940B7091950B6115710511F06C5F63
:103480007F4F18A21BA222E0A801C7010E9453A9E6
:10349000811102C0D12C12C0C7010E94729D8823E5
:1034A000C9F361E0C7010E9416A6009799F325EEC3
:1034B000FC0120831BA20E943D5ED82EC7010E9402
:1034C0004A4DD11005C0ACEBEA2EA2E0FA2E22C084
:1034D000FEEAEF2EF2E0FF2EF7018491882331F00F
:1034E0000E94209BFFEFEF1AFF0AF6CFD8018D91C3
:1034F0008D01882319F00E94209BF8CF8AE00E945A
:10350000209B1092C40D1092C50D1092C60D109202
:10351000C70D15C0F7018491882331F00E94209BCC
:10352000BFEFEB1AFB0AF6CFD8018D918D018823EE
:1035300019F00E94209BF8CF8EE20E94209BCE01C2
:1035400001960E94B9970C9468298091480B8111CB
:103550000E94739400918B0410918C0461E270E0DE
:10356000C8010E94EBD5009719F08C010F5F1F4F27
:1035700080E50E94E842882349F0FF24F39480917B
:103580007E0490917F048017910708F0F12C8091C0
:10359000490B882311F40C9468294F2D61E0C80170
:1035A0000E94DE7A83E50E94E842882349F08091F8
:1035B0007E0490917F048017910710F40C94BC292D
:1035C0008091490B882319F081E08093480BF1101A
:1035D0000C94682952CE81E08093470B40E060E074
:1035E000C8010E94DE7A0C9468290E949BBEECE31D
:1035F000CE2ED12CE12CF12CA70196010E942DDEBC
:10360000762E672ECA01B901A70196010E942DDE10
:103610006B017C01CA01B90128E130E040E050E0D3
:103620000E942DDE4B015C01C9016DE671E00E9434
:1036300063D28E010F5F1F4F6115710599F06F9274
:103640007F92DF92CF929F928F929F938F937F93DF
:103650006F9380E193E09F938F931F930F930E944A
:1036600039DA12C00097B1F06F927F92DF92CF9259
:103670009F928F929F938F9380E093E09F938F937D
:103680001F930F930E9439DA0FB6F894DEBF0FBE76
:10369000CDBF36C081149104A104B10479F06F92BA
:1036A0007F92DF92CF929F928F9284EF92E09F93CE
:1036B0008F931F930F930E9439DAE6CFC114D10480
:1036C000E104F10469F06F927F92DF92CF928CEE69
:1036D00092E09F938F931F930F930E9439DAD4CF78
:1036E0006F927F9288EE92E09F938F931F930F9338
:1036F0000E9439DA0F900F900F900F900F900F905B
:1037000060E0C8010E9488556AEFE62E69E1F62E56
:10371000F7018491882331F00E94209B9FEFE91AE2
:10372000F90AF6CF54E2E52E53E0F52EF701849125
:10373000882331F00E94209BFFEFEF1AFF0AF6CF9B
:10374000D8018D918D01882319F00E94209BF8CF1C
:103750008AE00E94209B0E94C9470C94682983E557
:103760000E94E842882311F40C9468290E942A439D
:103770007C018F3F910519F010F00C94682980E5C9
:103780000E94E842882339F00E942A438C0197FF67
:1037900004C00C9468290DE010E0EEE9F2E081919C
:1037A00091910817190711F40C94682922E0EE3E54
:1037B000F207A9F761E0802F0E943B4E6E2D802F0B
:1037C0000E94F94DB701802F0E94774E09301105F4
:1037D00011F00C946829F0928B09E0928A090C94FC
:1037E00068290E9448C10C9468298091380B9091F7
:1037F000390B019711F00C94682982E090E09093C6
:10380000390B8093380B0E94764F6093420B709374
:10381000430B8093440B9093450B0C9468290E94B2
:10382000029E0C94682988E690E00E948A478111E4
:103830000C9468298091151383FF02C00C946829A9
:1038400083E50E94E842882311F40C9468290E94C1
:1038500042430E941CD470932D0A60932C0A0E944C
:10386000229D0E94424320E030E04AEA52E40E9456
:1038700068DA18163CF00E94029E60E08CE393E048
:103880000E9473550E94424320912E0A30912F0AC4
:103890004091300A5091310A0E9407D5181614F051
:1038A0000C94682960E081E393E00E9473550C94C6
:1038B00068298EE40E94E842882311F40C94682958
:1038C0000E94AAC460938004709381048093820450
:1038D000909383040C94682983E50E94E84288232E
:1038E00019F00E94FB4201C080E0809315130AEF9B
:1038F00019E1F8018491882329F00E94209B0F5F31
:103900001F4FF7CF0CE513E0F8018491882329F0CD
:103910000E94209B0F5F1F4FF7CF809115138823C4
:1039200089F14EE4E42E43E0F42E00E010E020E0C4
:103930008091151390E0002E02C0959587950A940A
:10394000E2F780FF16C0BB24B394B20E222319F015
:103950008CE20E94209BF701C590D490F6018491DF
:10396000882331F00E94209BFFEFCF1ADF0AF6CFA9
:103970002B2D0F5F1F4FF2E0EF0EF11C05301105EC
:10398000B9F60BC008E513E0F8018491882329F00B
:103990000E94209B0F5F1F4FF7CF8AE00E94209B61
:1039A0000C946829109283020C94682983E693E0B2
:1039B0000E94D2970E941A820C94682983E50E9483
:1039C000E842882369F00E94FB42809341028D33D4
:1039D00010F40C9468298CE3809341020C946829BC
:1039E0000AEF19E1F8018491882329F00E94209BB5
:1039F0000F5F1F4FF7CF4091410250E060E070E051
:103A00008CE693E00E941E478AE00E94209B0C9463
:103A100068298091151383FF02C00C94682983E5FF
:103A20000E94E842882311F40C9468290E944243C2
:103A30000E941CD470938D0960938C090E94278D7D
:103A40000C94682989E690E00E948A47811110C091
:103A500003E713E0F8018491882329F00E94209B5A
:103A60000F5F1F4FF7CF0E945A848AE00E94209B6D
:103A70001092F7091092F6090C94602B8DE690E0F5
:103A80000E948A4781110C9468298091151383FF45
:103A900002C00C94682983E50E94E84224968FAF07
:103AA0002497811105C082E50E94E8428823C1F174
:103AB0000E9442430E941CD470932D0A60932C0AEA
:103AC0000E94229D0E94424320E030E04AEA52E4F4
:103AD0000E9468DA181614F40C94CE290E94029EF3
:103AE00060E086E993E00E94735560912C0A709122
:103AF0002D0A072E000C880B990B0E946EDA20917C
:103B00002E0A30912F0A4091300A5091310A0E94BA
:103B100007D518162CF460E08BE893E00E947355EB
:103B200086E40E94E84280938909882351F00E942C
:103B30004243609331027093320280933302909338
:103B4000340283E50E94E842882351F00E944243F8
:103B50006093390270933A0280933B0290933C0247
:103B600082E40E94E842882351F00E94424360931D
:103B7000350270933602809337029093380281E0C9
:103B8000809383021092F7091092F60923961CAED7
:103B90001DAE1EAE1FAE239728961CAE1DAE1EAEE8
:103BA0001FAE28971BAE29961FAE2997FCE32A96D5
:103BB000FFAF2A972CE12B962FAF2B9736E42D964B
:103BC0003FAF2D97C12CD12C20E8E22E3FEBF32EF6
:103BD000812C912C540160912C0A70912D0A072E92
:103BE000000C880B990B0E946EDA162F072F782E87
:103BF000692E262F372F482F592FB601C7010E9453
:103C000068DA882301F120912E0A30912F0A409121
:103C1000300A5091310A612F702F872D962D0E9406
:103C200068DA881F8827881F8BAF24964FAD2497AA
:103C3000442369F0882359F060E086E793E00E940E
:103C400073550C9468291C2D0D2D7E2C6F2C0E9411
:103C5000764F6B017C01DC01CB0128962CAD3DAD8C
:103C60004EAD5FAD2897821B930BA40BB50BB7FD30
:103C700049C0D701C60188519C4FAF4FBF4F28960E
:103C80008CAF9DAFAEAFBFAF28970E945A8497E824
:103C9000492E93E0592EF2018491882331F00E943D
:103CA000209B9FEF491A590AF6CF81149104A10471
:103CB000B104D1F0D501C401805F984DAF4FBF4F23
:103CC000BC01CD016C197D098E099F0928EE33E0F6
:103CD00040E050E00E942DDECA01B9010E94AC9B79
:103CE0008AE00E94209B0EC084E8482E83E0582E74
:103CF000F2018491882331F00E94209BFFEF4F1A3C
:103D00005F0AF6CF0E9417980E94EC4720902E0A77
:103D100030902F0A4090300A5090310A9101A20150
:103D2000612F702F872D962D0E94BED29F77811410
:103D30009104A104B10449F420E030E040E85FE3DD
:103D40000E9468DA87FF0BC008C020E030E040E442
:103D500050E40E9407D5181614F446015701FBAD34
:103D6000FF2309F443C023962CAD3DAD4EAD5FADAE
:103D70002397211531054105510541F0D701C601B1
:103D8000821B930BA40BB50BB7FD30C09101A201B0
:103D900029966FAD29972A967FAD2A972B968FADDE
:103DA0002B972D969FAD2D970E94BED220E030E03C
:103DB00040EC5FE30E9468DA87FD3ECFD701C60181
:103DC000805A9541AF4FBF4F23968CAF9DAFAEAF9A
:103DD000BFAF239729962FAE29972A963FAE2A97F1
:103DE0002B964FAE2B972D965FAE2D978091830229
:103DF000882309F421CF81149104A104B10429F48A
:103E0000C12ED02EE72CF62CE6CE90E1C91A97E20F
:103E1000D90AE108F108C818D908EA08FB08F7FE32
:103E20000BCFEECF8091151383FF02C00C9468294D
:103E300060E089EB93E00E94735583E50E94E842BD
:103E400024968FAF2497811105C082E50E94E84235
:103E50008823B1F00E9442430E941CD470938D09C4
:103E600060938C090E94278D0E94424320E030E03D
:103E700040EA50E40E9407D5181614F40E9448C185
:103E800081E0809383021092F7091092F6098091E5
:103E900085048093840423961CAE1DAE1EAE1FAE17
:103EA000239728961CAE1DAE1EAE1FAE28971BAEE4
:103EB00029961FAE2997ACE32A96AFAF2A97BCE1AB
:103EC0002B96BFAF2B97E6E42D96EFAF2D97C12C25
:103ED000D12CA0E8EA2EBFEBFB2E812C912C5401B3
:103EE00060918C0970918D09072E000C880B990B3D
:103EF0000E946EDA162F072F782E692E262F372F65
:103F0000482F592FB601C7010E9468DA882301F1B2
:103F10002091100E3091110E4091120E5091130EFF
:103F2000612F702F872D962D0E9468DA881F8827B1
:103F3000881F8BAF2496FFAD2497FF2369F0882359
:103F400059F060E088EA93E00E9473550C94682968
:103F50001C2D0D2D7E2C6F2C0E94764F6B017C0149
:103F6000DC01CB0128962CAD3DAD4EAD5FAD289761
:103F7000821B930BA40BB50BB7FD49C0D701C6013B
:103F800088519C4FAF4FBF4F28968CAF9DAFAEAFBF
:103F9000BFAF28970E945A84F5EB4F2EF3E05F2EB7
:103FA000F2018491882331F00E94209B9FEF491AEF
:103FB000590AF6CF81149104A104B104D1F0D501BE
:103FC000C401805F984DAF4FBF4FBC01CD016C194C
:103FD0007D098E099F0928EE33E040E050E00E9401
:103FE0002DDECA01B9010E94AC9B8AE00E94209B91
:103FF0000EC0E2EB4E2EE3E05E2EF20184918823A8
:1040000031F00E94209BFFEF4F1A5F0AF6CF0E940B
:1040100017980E94EC472090100E3090110E40909F
:10402000120E5090130E9101A201612F702F872D57
:10403000962D0E94BED29F7781149104A104B104F1
:1040400049F420E030E040E85FE30E9468DA87FF4F
:104050000BC008C020E030E040E450E40E9407D5E7
:10406000181614F446015701FBADFF2309F443C0B1
:1040700023962CAD3DAD4EAD5FAD23972115310597
:104080004105510541F0D701C601821B930BA40BDA
:10409000B50BB7FD30C09101A20129966FAD2997EC
:1040A0002A967FAD2A972B968FAD2B972D969FAD95
:1040B0002D970E94BED220E030E040EC5FE30E94EA
:1040C00068DA87FD3ECFD701C601805A9541AF4FD0
:1040D000BF4F23968CAF9DAFAEAFBFAF239729964E
:1040E0002FAE29972A963FAE2A972B964FAE2B9745
:1040F0002D965FAE2D9780918302882309F421CFFE
:1041000081149104A104B10429F4C12ED02EE72C0E
:10411000F62CE6CE90E1C91A97E2D90AE108F10837
:10412000C818D908EA08FB08F7FE0BCFEECF83E5E5
:104130000E94E842882321F00E949DC48C0102C0A5
:104140000FEF10E080E50E94E842882319F00E94FA
:104150009DC402C080E090E098010F3F110519F066
:1041600010F02FEF30E0892B11F00C946829309378
:104170008B0920938A090C94682980E50E94E84203
:10418000811106C010928B0910928A090C9468293B
:104190000E949DC4892B11F00C946829F3CF0E94D2
:1041A000778D0E9473940E94C19710928B09109290
:1041B0008A0968EE73E080E090E00E943E4F269A04
:1041C0002E9A10921C0260E088ED93E00E947355D5
:1041D0000E9499550C946829109289040C946829BE
:1041E00081E0809389040C94692983E50E94E84268
:1041F000882361F00E94D44360934202709343028B
:1042000080934402909345020C94682988E50E94AB
:10421000E84281110C94422989E50E94E84281110B
:104220000C9442298AE50E94E84281110C944229AB
:1042300085E40E94E84281110C9442290C94D22911
:1042400083E50E94E842882311F40C9468290E94B7
:10425000D4436093FC097093FD098093FE09909309
:10426000FF090C9468296AE9862E62E0962E08E61A
:1042700017E071E1A72E77E0B72EA1E3B3E1BCAF61
:10428000ABAF312CF40181914F010E94E8428823A9
:1042900009F460C0F3E03F1255C00E9442432B0175
:1042A0003C0120E030E040EA51E40E9468DA87FFF8
:1042B00043C0A3019201D8016D917D918D919C9194
:1042C0000E94ABD36B017C019B01AC016091210783
:1042D0007091220780912307909124070E94CDDAE4
:1042E00060932107709322078093230790932407FC
:1042F000A7019601F50160817181828193810E94FD
:10430000CDDAD5016D937D938D939C931397EBAD8F
:10431000FCAD60817181828193810E946CDAA7017A
:1043200096010E94CDDA0E9422D4ABADBCAD6D9354
:104330007D938D939C931397F80140825182628202
:10434000738208C00E944243D8016D937D938D9380
:104350009C93139733940C5F1F4FB4E0AB0EB11CCA
:10436000EBADFCAD3496FCAFEBAFF4E03F128ACF7F
:104370000E9441C3ADC7F8018491882309F4A8C7FE
:104380000E94209B0F5F1F4FF6CF60E0C8010E9484
:1043900088559EC70E947E829BC781E0809313024E
:1043A00080931F0596C71092130210921F0590C7A5
:1043B000F8018491882329F00E94209B0F5F1F4FF2
:1043C000F7CF02EC14E0F8018491882329F00E94D1
:1043D000209B0F5F1F4FF7CF659903C004EC13E0DC
:1043E00002C009EC13E0D8018D918D01882319F0EA
:1043F0000E94209BF8CF8AE00E94209B0AEB14E0E9
:10440000F8018491882329F00E94209B0F5F1F4FA1
:10441000F7CF8091030181FD03C004EC13E002C0DB
:1044200009EC13E0D8018D918D01882319F00E94C9
:10443000209BF8CF8AE00E94209B02EB14E0F80159
:104440008491882329F00E94209B0F5F1F4FF7CF94
:104450004B9B03C004EC13E002C009EC13E0D8014D
:104460008D918D01882309F498CA0E94209BF7CF73
:1044700083E50E94E8428823F1F00E942A438230BB
:10448000B8F003EE14E1F8018491882329F00E942A
:10449000209B0F5F1F4FF7CF04EE14E0F8018491CB
:1044A000882309F415C70E94209B0F5F1F4FF6CF8A
:1044B000813009F444C088E40E94E842882391F0E6
:1044C0000E942A438A3A91053CF08431F1E09F072B
:1044D0002CF083E191E002C08AEA90E09093E80634
:1044E0008093E70686E40E94E842882381F00E94D8
:1044F0002A438F3F910519F014F08FEF90E097FF5A
:1045000002C080E090E09093EA068093E90682E49E
:104510000E94E842882309F4DBC60E942A438530C2
:10452000910534F0883891052CF087E890E002C0BE
:1045300085E090E09093E6068093E506C9C688E49E
:104540000E94E842882391F00E942A438A3A91050A
:104550003CF0843121E092072CF083E191E002C02D
:104560008AEA90E09093EE068093ED0686E40E943E
:10457000E842882381F00E942A438F3F910519F079
:1045800014F08FEF90E097FF02C080E090E09093EE
:10459000F0068093EF0682E40E94E842882309F443
:1045A00097C60E942A438530910534F088389105DA
:1045B0002CF087E890E002C085E090E09093EC0654
:1045C0008093EB0685C688EC90E00E948A478111B3
:1045D0007FC684E40E94E842882309F479C60E94D9
:1045E000424311E020E030E0A9010E9468DA811125
:1045F00001C010E01093E106112359F100918404E9
:1046000010E00E944243000F111F000F111FF8011C
:10461000EC5EFD4F608371838283938320E030E002
:10462000A901609114027091150280911602909177
:1046300017020E9468DA81110CC080E090E0A0E4CB
:10464000B0E48093140290931502A0931602B093E5
:1046500017020E947C943CC639EFE32E36E0F32E1D
:104660000AE912E044E0D42ED00ED8018D918D01DC
:104670000E94E842882349F00E9442430E9422D4CB
:10468000F7016083718382839383F4E0EF0EF11C62
:10469000D012EBCF0E94F9C21BC691E1E92E97E040
:1046A000F92E0AE912E024E0D22ED00ED8018D9125
:1046B0008D010E94E842882339F00E944243F701AD
:1046C0006083718382839383F4E0EF0EF11CD01238
:1046D000EDCFFEC583E50E94E8428823D9F00E9411
:1046E0004243AB01BC0140932D0750932E076093CA
:1046F0002F07709330074093F1065093F2066093B2
:10470000F3067093F40680E695E00E9456478AE02F
:104710000E94209B80E50E94E842882399F00E9435
:104720004243AB01BC0140932D0750932E07609389
:104730002F077093300783E495E00E9456478AE084
:104740000E94209B82E50E94E842882399F00E9403
:104750004243AB01BC014093F5065093F6066093CB
:10476000F7067093F80684E295E00E9456478AE0C7
:104770000E94209B84E50E94E842882309F4A8C592
:104780000E944243AB01BC014093F1065093F206F4
:104790006093F3067093F40686E095E00E94564716
:1047A0008AE00E94209B94C583E50E94E84288230A
:1047B00051F00E94424360930D0770930E0780935F
:1047C0000F079093100784E50E94E842882351F078
:1047D0000E9442436093090770930A0780930B0776
:1047E00090930C0782E40E94E842882351F00E94D3
:1047F00037436093111370931213809313139093A4
:10480000141388E50E94E842882351F00E94424335
:104810006093290770932A0780932B0790932C07A6
:104820008AE50E94E842882351F00E944243609347
:10483000250770932607809327079093280785E420
:104840000E94E842882309F443C50E9442436093D2
:10485000210770932207809323079093240738C57C
:104860001AE9A12E12E0B12E08E5C02E07E0D02EE5
:1048700082E3E82E85E0F82E00E010E0D5018D916E
:104880005D010E94E842882311F10E9442432B01FE
:104890003C01F70120813181428153810E94BED2C7
:1048A0009B01AC01D6016D917D918D919C910E94EF
:1048B000BFD2F6016083718382839383D7014D92C7
:1048C0005D926D927C921397C8010E949D420F5F8A
:1048D0001F4FB4E0CB0ED11CE4E0EE0EF11C033010
:1048E000110561F60E9405470E947E82F1C483E5AE
:1048F0000E94E842882309F4EBC40E942A43909363
:104900001B0280931A02E4C48DED90E00E948A4756
:104910008111DEC483E50E94E842882309F4D8C4EB
:104920000091840410E00E942A43000F111FF80137
:10493000E85EFD4F91838083CBC480E50E94E8420E
:10494000882309F4C5C40E942A438C0183E50E9490
:10495000E842882321F00E942A437C0103C0EE2410
:10496000EA94FE2CC7010196039708F0B1C4EEE962
:10497000F2E0819191918017910709F4A9C422E096
:10498000EE3EF207B1F717FDA3C40E947394D02E38
:1049900060E0802F0E943B4E3FEFE316F30631F0BC
:1049A000EA94EF2871F401E010E00DC0802F0E941E
:1049B000FACA31E020E0892B09F030E0032F122FF2
:1049C00002C000E010E08D2D0E94FACA8017910706
:1049D00009F47EC40E941798F6CF83E50E94E8424E
:1049E000882319F00E949DC402C084E091E099A33D
:1049F00088A380E50E94E842882349F00E949DC474
:104A0000893853E1950728F088E893E102C088EEE1
:104A100093E09A838983BE01605E7F4FCE01019649
:104A20000E9467BE55C485E40E94E842811110C00F
:104A300080E50E94E842882399F00E9442436093F7
:104A4000290270932A0280932B0290932C0208C0B3
:104A50000E942A43181619065CF703EE14E189C078
:104A600089E40E94E842882381F00E9442432CE9B5
:104A700033E549E45EE30E94CDDA60930F02709360
:104A80001002809311029093120284E40E94E84283
:104A9000882381F00E9442432CE933E549E45EE338
:104AA0000E94ABD360932D0270932E0280932F024D
:104AB000909330020E941B940AEF19E1F80184914F
:104AC000882329F00E94209B0F5F1F4FF7CF00E93A
:104AD00015E0F8018491882329F00E94209B0F5F44
:104AE0001F4FF7CF6091290270912A0280912B020B
:104AF00090912C0242E00E94CF9B0CE815E0F80157
:104B00008491882329F00E94209B0F5F1F4FF7CFCD
:104B10002CE933E549E45EE360910F0270911002E5
:104B200080911102909112020E94ABD342E00E9448
:104B3000CF9B08E815E0F8018491882329F00E94B2
:104B4000209B0F5F1F4FF7CF2CE933E549E45EE36D
:104B500060912D0270912E0280912F02909130026F
:104B60000E94CDDA42E00E94CF9B8AE00E94209B07
:104B7000AFC3F8018491882329F00E94209B0F5F26
:104B80001F4FF7CF03ED13E0D8018D918D018823DE
:104B900011F40C94CD1C0E94209BF6CF83E50E945B
:104BA000E842082F8823A1F00E94424360938902C3
:104BB00070938A0280938B0290938C0211E020E024
:104BC00030E0A9010E9468DA811110E010931013FF
:104BD00080E50E94E842182F8823C1F020E030E0F1
:104BE000A9016091890270918A0280918B02909153
:104BF0008C020E9468DA882331F00E94FB4211E0A7
:104C0000811101C010E01093101362C3011160C341
:104C10000AEF19E1F8018491882329F00E94209B72
:104C20000F5F1F4FF7CF61E070E089EA95E00E94C7
:104C3000724720E030E040E05FE3609189027091CC
:104C40008A0280918B0290918C020E94BFD20E94B6
:104C50001CD488E995E00E94724704E915E0F80148
:104C60008491882309F434C30E94209B0F5F1F4F57
:104C7000F6CF85E40E94E842882321F00E942A436F
:104C80007C0102C0E12CF12C83E40E94E8428823DD
:104C900039F00E942A43A8969FAF8EAFA89706C00E
:104CA00025E030E0A8963FAF2EAFA89785E50E949B
:104CB000E842882341F00E94FB4231E06D963FAF0D
:104CC0006D97811103C06D961FAE6D9783E50E94AD
:104CD000E842882379F00E94424324966FAF2497DC
:104CE00025967FAF259729968FAF29972A969FAF54
:104CF0002A9710C024961FAE249725961FAE25979D
:104D0000F7FC0EC046E129964FAF299753E42A9647
:104D10005FAF2A97E114F10459F41092840408C09B
:104D20008CE829968FAF299792E42A969FAF2A970D
:104D30001092F7091092F6090E94764F4B015C0120
:104D4000EF2819F404EE13E00EC007EF13E0D801CA
:104D50008D918D01882319F00E94209BF8CF8AE065
:104D60000E94209BB5C2F80181918F01882319F020
:104D70000E94209BF8CF8AE00E94209B0E94778DA2
:104D80008FE78093A20981E080938302A2968CAE84
:104D90009DAEAEAEBFAEA297AC968CAE9DAEAEAEA3
:104DA000BFAEAC972D961FAE2D97F0E42E96FFAFB9
:104DB0002E972CE12F962FAF2F9736E460963FAFBA
:104DC000609761961FAE619762961FAE6297639679
:104DD0001FAE639764961FAE64976C961CAE1DAEB3
:104DE0001EAE1FAE6C9768961CAE1DAE1EAE1FAEFB
:104DF0006897C12CD12C7601FFE74F2E512C612CE6
:104E0000712C8FE790E0A0E0B0E023968CAF9DAFCF
:104E1000AEAFBFAF2397A6961CAE1DAE1EAE1FAEA3
:104E2000A69791E06E969FAF6E972C961FAE1EAE22
:104E30002C9710E000E0312C212C809183028823F4
:104E400009F4B9C10E94764F6BAF7CAF8DAF9EAFB6
:104E50008091A009882309F4CBC00E941A91109177
:104E60002E0A00912F0A3090300A2090310A212F0B
:104E7000302F432D522D61966FAD619762967FADB5
:104E8000629763968FAD639764969FAD64970E9417
:104E900007D5181664F061961FAF619762960FAF41
:104EA000629763963FAE639764962FAE6497212F07
:104EB000302F432D522D2D966FAD2D972E967FAD11
:104EC0002E972F968FAD2F9760969FAD60970E947B
:104ED00068DA87FD0CC02D961FAF2D972E960FAF69
:104EE0002E972F963FAE2F9760962FAE60976E96B7
:104EF000AFAD6E9724962FAD249725963FAD25979D
:104F000029964FAD29972A965FAD2A97612F702F6A
:104F1000832D922DAA2309F451C00E9407D518169B
:104F20000CF066C04BAD5CAD6DAD7EAD4819590956
:104F30006A097B09DB01CA0188589341A109B109BB
:104F4000B7FD56C023968CAD9DADAEADBFAD2397DA
:104F500084199509A609B709B595A79597958795D9
:104F60008093A209A6964CAF5DAF6EAF7FAFA697B8
:104F70002496BFAD24976196BFAF61972596EFAD9C
:104F800025976296EFAF62972996FFAD29976396B2
:104F9000FFAF63972A962FAD2A9764962FAF649739
:104FA0008BAD9CADADADBEADA2968CAF9DAFAEAF9F
:104FB000BFAFA2976E961FAE6E971AC00E9468DAB6
:104FC00087FF16C08BAD9CADADADBEADA2962CAD2E
:104FD0003DAD4EAD5FADA297821B930BA40BB50BFD
:104FE000AC01BD01485853416109710977FFDFC128
:104FF00020E030E040EA51E424966FAD24972596F6
:105000007FAD259729968FAD29972A969FAD2A9730
:105010000E94BFD29B01AC01612F702F832D922D76
:105020000E9407D5181664F406E716E0F80184918B
:10503000882309F44DC10E94209B0F5F1F4FF6CFBC
:1050400080E398EFAFEFBFEFAC962CAD3DAD4EAD2A
:105050005FADAC97821B930BA40BB50B2BAD3CAD96
:105060004DAD5EAD820F931FA41FB51FB7FD0FC0DE
:105070000E945A848AE00E94209B8BAD9CADADAD0E
:10508000BEADAC968CAF9DAFAEAFBFAFAC978BADA6
:105090009CADADADBEAD880F991FAA1FBB1FA296D8
:1050A0002CAD3DAD4EAD5FADA297821B930BA40B13
:1050B000B50B88199909AA09BB0981389F44A241F7
:1050C000B10560F008E516E0F8018491882309F441
:1050D000FFC00E94209B0F5F1F4FF6CF2C962EAD76
:1050E0003FAD2C97A8964EAD5FADA89742175307DA
:1050F0000CF05EC00BEF15E0F8018491882329F0D5
:105100000E94209B0F5F1F4FF7CFB701A60186EECD
:1051100095E00E94564768964CAD5DAD6EAD7FAD93
:10512000689781ED95E00E9456476C964CAD5DAD59
:105130006EAD7FAD6C978CEB95E00E9456476D96F7
:10514000FFAD6D97FF2309F4C3C0C0922902D0922E
:105150002A02E0922B02F0922C022CE933E549E47A
:105160005EE368966CAD7DAD8EAD9FAD68970E9495
:10517000CDDA60930F027093100280931102909326
:1051800012022CE933E549E45EE36C966CAD7DAD2B
:105190008EAD9FAD6C970E94ABD360932D02709340
:1051A0002E0280932F02909330020E941B9490C095
:1051B0000E94995542CE80918302811189C00E943C
:1051C000778D86C00E94739483C081E00E949141D4
:1051D0007FC00E94BF5C80E00E944E5979C00E944F
:1051E000BF5C76C083E50E94E842982F882329F0AF
:1051F0000E94FB4291E0811190E0892F0E944E595C
:1052000067C00E941A8164C00E949A8161C081E0D7
:1052100080933D021092050583E50E94E8428823B1
:1052200009F44BC20E94FB42811152C046C2122FA8
:10523000209385049AEFE92E99E1F92EF7018491E4
:10524000882331F00E94209B2FEFE21AF20AF6CF5A
:1052500089EEE82E86E0F82EF7018491882331F05C
:105260000E94209BFFEFEF1AFF0AF6CF612F70E03C
:1052700080E090E00E94AC9B8AE00E94209B28C0C6
:1052800080E027C00E94739488E50E94E84288234A
:1052900019F05F9A10922E0589E50E94E842882352
:1052A00019F08A9A10922F058AE50E94E842882315
:1052B00051F09FB7F89480910801816080930801B4
:1052C0009FBF1092300585E40E94E8428111129A36
:1052D00081E01092F7091092F609882311F40C94DA
:1052E0005C120E94EC9AECC1F8018491882329F0A9
:1052F0000E94209B0F5F1F4FF7CF0EEF16E0F801C3
:105300008491882329F00E94209B0F5F1F4FF7CFC5
:1053100000918D0410918E04D8018D918D01882308
:1053200019F00E94209BF8CF0BEF16E0F801849152
:105330008823B9F20E94209B0F5F1F4FF7CF81E0B7
:1053400090E09093F7098093F6091092150E109251
:10535000140E0C9403190E94AAC4AB01BC01409323
:10536000C40D5093C50D6093C60D7093C70D83E1B6
:105370009DE00E9400A4ACCF0E94AAC4AB01BC0176
:105380004093C40D5093C50D6093C60D7093C70D27
:1053900083E19DE00E9400A40C94E01A0E9448C1A1
:1053A0000C94751D0E9473940E94C19791CF2C9606
:1053B0004EAD5FAD2C97141615060CF043C1A696A2
:1053C0008CAC9DACAEACBFACA697880E991EAA1E45
:1053D000BB1EA6962CAD3DAD4EAD5FADA697281B6E
:1053E000390B4A0B5B0BCA01B901A30192010E9460
:1053F0001EDEA50194010E948AD223964CAC5DACBE
:105400006EAC7FAC2397420E531E641E751E34E1B2
:1054100043165104610471041CF14CEE441651040E
:10542000610471043CF450E84516510461047104B0
:105430003CF105C06BEE462E512C612C712C23964D
:105440004CAE5DAE6EAE7FAE23978EEF90E0A0E0E7
:10545000B0E084199509A609B7092C013D0116C0D1
:1054600024E130E040E050E023962CAF3DAF4EAF5A
:105470005FAF239754E1452E512C612C712C06C04F
:1054800023964CAE5DAE6EAE7FAE239723964CADA9
:105490005DAD6EAD7FAD239781EE96E00E94B5C401
:1054A000B301A2018CED96E00E94B5C42D964FADDC
:1054B0002D972E965FAD2E972F966FAD2F976096F6
:1054C0007FAD609785ED96E00E94564761964FAD9F
:1054D000619762965FAD629763966FAD63976496CE
:1054E0007FAD64978EEC96E00E9456472C964EADA9
:1054F0005FAD2C97433051050CF4A4C0C301B20139
:105500000E946EDA20E030E040E850E40E94CDDAFC
:105510006B017C012D962FAD2D972E963FAD2E97CA
:105520002F964FAD2F9760965FAD609761966FADE8
:10553000619762967FAD629763968FAD639764962D
:105540009FAD64970E94BED22BED3FE049E450E44A
:105550000E94CDDA20E030E040E05FE30E94CDDA47
:105560009B01AC01C701B6010E94ABD36B017C016A
:10557000C501B4010E946EDA2FE632E143E85AE336
:105580000E94CDDA4B015C01B701A60188EC96E0E0
:105590000E945647B501A40182EC96E00E9456474E
:1055A0002AE939E949E15FE3C701B6010E94CDDA92
:1055B0006B017C019B01AC010E94BFD2A50194014B
:1055C0000E94ABD368966CAF7DAF8EAF9FAF6897EC
:1055D000A5019401C701B6010E94CDDA20E030E0B8
:1055E00040E05EE30E94CDDA6C966CAF7DAF8EAF8B
:1055F0009FAF6C9743EBA42E46E0B42EF501849147
:10560000882331F00E94209B5FEFA51AB50AF6CFE0
:10561000B701A6018DEA96E00E94564768964CAD08
:105620005DAD6EAD7FAD689787EA96E00E94564704
:105630006C964CAD5DAD6EAD7FAD6C9781EA96E03A
:105640000E94564723968CAD9DADAEADBFAD23975E
:10565000840D951DA61DB71DB595A79597958795A2
:105660008093A2092C962EAD3FAD2C972F5F3F4F14
:105670002C963FAF2EAF2C9724963FAD24972D96B6
:105680003FAF2D9725964FAD25972E964FAF2E976E
:1056900029965FAD29972F965FAF2F972A968FADEA
:1056A0002A9760968FAF60978BAC9CACADACBEACCC
:1056B00091E06E969FAF6E979BCC0E9473C408CE0C
:1056C000C159DF4F0FB6F894DEBF0FBECDBFDF91DB
:1056D000CF911F910F91FF90EF90DF90CF90BF90EF
:1056E000AF909F908F907F906F905F904F903F9082
:1056F0002F9008952F923F924F925F926F927F92D8
:105700008F929F92AF92BF92CF92DF92EF92FF92D1
:105710000F931F93CF93DF93CDB7DEB7C25AD10952
:105720000FB6F894DEBF0FBECDBF0DB71EB7C8577A
:10573000DF4F19830883C858D04081E00E94639CE2
:1057400081110C94213F86E50E94E842882339F0BC
:105750000E942A43A9969FAF8EAFA99706C021E069
:1057600030E0A9963FAF2EAFA997A9964EAD5FAD99
:10577000A9974530510568F002EC18E0F8018491D2
:10578000882311F40C94213F0E94209B0F5F1F4F30
:10579000F5CF84E40E94E842EA968FAFEA9785E469
:1057A0000E94E842A2968FAFA297A9960EAD1FADB8
:1057B000A997033011055CF484E50E94E842C057C4
:1057C000DF4F8883C059D040012B11F106C011E092
:1057D000C057DF4F1883C059D0400BEA18E0F801DA
:1057E0008491882329F00E94209B0F5F1F4FF7CFE1
:1057F000EA96FFADEA97FF2359F002E918E0F801B5
:105800008491882329F00E94209B0F5F1F4FF7CFC0
:1058100080E50E94E8428823A9F00E942A43679607
:105820009FAF8EAF679702979CF40AE518E0F801E6
:105830008491882311F40C94213F0E94209B0F5FD8
:105840001F4FF5CF03E010E067961FAF0EAF6797CD
:1058500083E50E94E842882329F00E9442430E9487
:105860001CD402C060E47FE17093060260930502DD
:105870008CE40E94E842882319F00E94424318C039
:1058800020E030E040E751E460913205709133054B
:1058900080913405909135050E94BFD22091000A75
:1058A0003091010A4091020A5091030A0E94BFD22E
:1058B0000E941CD47AAF69AF82E50E94E842882337
:1058C00019F00E94424318C020E030E047E553E45D
:1058D00060913205709133058091340590913505C2
:1058E0000E94BFD22091000A3091010A4091020A21
:1058F0005091030A0E94BFD20E941CD46B0186E41F
:105900000E94E842882319F00E94424318C020E018
:1059100030E040EA51E4609136057091370580919E
:105920003805909139050E94BFD22091040A309128
:10593000050A4091060A5091070A0E94BFD20E94B0
:105940001CD41B0182E40E94E842882319F00E94C3
:10595000424318C020E030E046E653E4609136054B
:105960007091370580913805909139050E94BFD21A
:105970002091040A3091050A4091060A5091070AC5
:105980000E94BFD20E941CD47B01409032055090EF
:10599000330560903405709035058090000A909032
:1059A000010AA090020AB090030A29AD3AADB901EC
:1059B000330F880B990B0E946EDA21966CAF7DAF86
:1059C0008EAF9FAF219720E030E040E85FE3C30156
:1059D000B2010E94BFD2A50194010E94BFD29B01D7
:1059E000AC0121966CAD7DAD8EAD9FAD21970E942F
:1059F00068DA01E00DAF87FD08C0C601099729AD3F
:105A00003AAD281739070CF41DAEB6010D2C000C69
:105A1000880B990B0E946EDA6DAB7EAB8FAB98AFA3
:105A200020E030E040E753E4C301B2010E94BFD25E
:105A3000A50194010E94BFD29B01AC016DA97EA972
:105A40008FA998AD0E9407D501E018163CF089ADEA
:105A50009AAD09968C159D050CF400E04090360532
:105A60005090370560903805709039058090040A91
:105A70009090050AA090060AB090070AB101032C85
:105A8000000C880B990B0E946EDA6DAB7EAB8FAB6E
:105A900098AF20E030E040E85FE3C301B2010E942C
:105AA000BFD2A50194010E94BFD29B01AC016DA998
:105AB0007EA98FA998AD0E9468DA11E087FD06C023
:105AC000C7010997281639060CF410E0B7010F2C0E
:105AD000000C880B990B0E946EDA6DAB7EAB8FAB1E
